:100000000C9434000C943E000C943E000C943E0082
:100010000C943E000C943E000C943E000C943E0068
:100020000C943E000C943E000C943E000C943E0058
:100030000C943E000C943E000C943E000C943E0048
:100040000C943E000C943E000C943E000C943E0038
:100050000C943E000C943E000C943E000C943E0028
:100060000C943E000C943E0011241FBECFEFD8E04C
:10007000DEBFCDBF0E9440000C9441010C940000F3
:100080008FD098D0A6D050D060D003D041FE219A16
:10009000F7CF32D0579A5F9825D05F9A57984F99EB
:1000A000FECF4F9BFECF4F99FECF0CD0982F0AD09A
:1000B00009D0C82FD7E0E6E060D0C92FD2E0E1E058
:1000C0005CD0E4CF08E088274F9BFECF1FD04F9B2A
:1000D00003C00894881F01C0880F4F99FECF0A956E
:1000E00099F708955FEF62ED72E07A95F1F76A95FE
:1000F000D9F75A95C1F708955FEF6FEF74EA7A95D3
:10010000F1F76A95D9F75A95C1F70895442746BD86
:1001100044E647BD4AE045BD45B341FFFDCF442716
:1001200045BD42E045BB08951CE214B911E51CBD74
:100130001AE028E017D019E023E614D01BE027E0EE
:1001400011D01CE021E00ED0089518E02FE00AD075
:1001500015E02EE407D014E020E004D013E027E1FE
:1001600001D008952A981EBD3DB537FFFDCF2EBDA5
:100170003DB537FFFDCF2A9A0895AA27BB27C4367D
:100180001AF0A395C456FBCFCA301AF0B395CA50E3
:10019000FBCF2B2F1D2FE6DF2C2F1E2FE3DF089523
:1001A000389840EC5FEF54B940937C0047E84093A7
:1001B0007A00089588278093C0008093C50087E661
:1001C0008093C40088E18093C10086E08093C200E0
:1001D000089570E387E047EC40937A0050917A00ED
:1001E00054FFFCCF17ED10937A00009178009091A6
:1001F0007900970F1091C00015FFFCCF9093C600B7
:100200000F93007F0295070FC02FCA533AF5109144
:10021000C00015FFFCCF0093C600302F0F910F7068
:10022000070FC02FCA53E2F41091C00015FFFCCF96
:100230000093C6001091C00015FFFCCF2AE0209368
:10024000C6001091C00015FFFCCF2DE02093C60022
:100250003634A8F0363480F405D00895080FD7CF8F
:10026000080FE2CF4FEF5FEF60E56A95F1F75A951F
:10027000D9F74A95C1F70895299B299AEDCF299876
:06028000EBCFF894FFCF64
:00000001FF
