:100000000C9434000C943E000C943E000C943E0082
:100010000C943E000C943E000C943E000C943E0068
:100020000C943E000C943E000C943E000C943E0058
:100030000C943E000C943E000C943E000C943E0048
:100040000C943E000C943E000C943E000C943E0038
:100050000C943E000C943E000C943E000C943E0028
:100060000C943E000C943E0011241FBECFEFD8E04C
:10007000DEBFCDBF0E9440000C94CB000C9400006A
:100080004ED05ED001D0089532D0579A5F9825D0D7
:100090005F9A57984F99FECF4F9BFECF4F99FECF57
:1000A0000CD0982F0AD009D0C82FD7E0E6E060D056
:1000B000C92FD2E0E1E05CD0E7CF08E088274F9B72
:1000C000FECF1FD04F9B03C00894881F01C0880F2C
:1000D0004F99FECF0A9599F708955FEF62ED72E0B0
:1000E0007A95F1F76A95D9F75A95C1F708955FEFB8
:1000F0006FEF74EA7A95F1F76A95D9F75A95C1F7D7
:100100000895442746BD44E647BD4AE045BD45B392
:1001100041FFFDCF442745BD42E045BB08951CE2A9
:1001200014B911E51CBD1AE028E017D019E023E648
:1001300014D01BE027E011D01CE021E00ED0089580
:1001400018E02FE00AD015E02EE407D014E020E0FC
:1001500004D013E027E101D008952A981EBD3DB5D3
:1001600037FFFDCF2EBD3DB537FFFDCF2A9A08954D
:10017000AA27BB27C4361AF0A395C456FBCFCA30B2
:100180001AF0B395CA50FBCF2B2F1D2FE6DF2C2F73
:0A0190001E2FE3DF0895F894FFCF5F
:00000001FF
