:100000000C9434000C943E000C943E000C943E0082
:100010000C943E000C943E000C943E000C943E0068
:100020000C943E000C943E000C943E000C943E0058
:100030000C943E000C943E000C943E000C943E0048
:100040000C943E000C943E000C943E000C943E0038
:100050000C943E000C943E000C943E000C943E0028
:100060000C943E000C943E0011241FBECFEFD8E04C
:10007000DEBFCDBF0E9440000C94AA000C9400008B
:1000800004D00BD019D0FCCF0895389A40EC40939F
:100090007C0047E840937A00089588278093C00049
:1000A0008093C50087E68093C40088E18093C100F7
:1000B00086E08093C200089570E387E047EC4093A8
:1000C0007A0050917A0054FFFCCF17ED10937A001C
:1000D0000091780090917900970F1091C00015FF62
:1000E000FCCF9093C6000F93007F0295070FC02F9F
:1000F000CA5312F51091C00015FFFCCF0093C60043
:100100000F910F70070FC02FCA53C2F41091C00097
:1001100015FFFCCF0093C6001091C00015FFFCCF67
:100120002AE02093C6001091C00015FFFCCF2DE0FF
:100130002093C60005D00895080FDCCF080FE6CF46
:100140004FEF5FEF60E56A95F1F75A95D9F74A9559
:08015000C1F70895F894FFCFF8
:00000001FF
